:020000040800F2
:100000003807002041020008352000080D1C0008B8
:10001000312000086D0D0008792400080000000060
:10002000000000000000000000000000D5210008D2
:10003000710D00080000000065200008092200087A
:100040005B0200085B0200085B0200085B0200081C
:100050005B0200085B0200085B0200085B0200080C
:100060005B0200085B0200085B0200085B020008FC
:100070005B0200085B0200085B0200085B020008EC
:100080005B0200085B0200085B0200085B020008DC
:100090005B0200085B0200085B0200085B020008CC
:1000A0005B0200085B0200085B0200085B020008BC
:1000B0005B0200085B0200085B0200085B020008AC
:1000C0005B0200085B0200085B0200085B0200089C
:1000D0005B0200085B0200085B0200085B0200088C
:1000E0005B0200085B0200085B0200085B0200087C
:1000F0005B0200085B0200085B0200085B0200086C
:100100005B0200085B0200085B0200085B0200085B
:100110005B0200085B0200085B0200085B0200084B
:100120005B0200085B0200085B0200085B0200083B
:100130005B0200085B0200085B0200085B0200082B
:100140005B0200085B0200085B0200085B0200081B
:100150005B0200085B0200085B0200085B0200080B
:100160005B0200085B0200085B0200085B020008FB
:100170005B0200085B0200085B0200080000000050
:100180005B0200085B02000800F002F800F049F88A
:100190000AA090E8000C82448344AAF10107DA45E2
:1001A00001D100F03EF8AFF2090EBAE80F0013F0EB
:1001B000010F18BFFB1A43F001031847382E000047
:1001C000582E0000103A24BF78C878C1FAD85207D8
:1001D00024BF30C830C144BF04680C6070470000C1
:1001E0000023002400250026103A28BF78C1FBD840
:1001F000520728BF30C148BF0B607047662902F024
:100200007D86002070471FB502F06BFE00F038FCC1
:1002100004000020002102F0D7FDE0601FBD10B5F2
:1002200010BD00F02DFD1146FFF7EDFF02F050F973
:1002300000F04BFD03B4FFF7F2FF03BC00F08EFDAE
:100240000948804709480047FEE7FEE7FEE7FEE76A
:10025000FEE7FEE7FEE7FEE7FEE7FEE704480549A6
:10026000054A064B70470000B122000889010008CA
:100270003801002038070020380300203803002010
:1002800053EA020C00F069802DE9F04B4FF00006B4
:10029000002B1FBFB3FA83F503FA05F424FA05F621
:1002A0005E4012BF1643B2FA82F502FA05F4C5F1B8
:1002B00020051EBF22FA05FC44EA0C04203556EA4C
:1002C000044C4FEA144418BF641C4FF000084FF070
:1002D0000009904271EB030C39D3002919BFB1FA20
:1002E00081F701FA07F6B0FA80F700FA07F6C7F1CE
:1002F00020071EBF20FA07FC46EA0C062037B6FB93
:10030000F4FCA7EB0507103F07F01F0BCBF120060D
:100310002CFA06F60CFA0BFB44BFB3460026202F3E
:10032000A4BF5E464FF0000B5BEA060C08BF4FF01F
:10033000010B19EB0B0948EB0608ABFB027C06FB33
:1003400002CC0BFB03CCC01B71EB0C01C1E70B46CD
:10035000024641464846BDE8F08B13B5084318BF36
:100360004FF0FF300146AFF30080BDE81C407047FE
:100370000FB41CB5074B06AA7B446946009005984C
:1003800000F033FB0020694600F042FB1CBC5DF826
:1003900014FB0000950600002DE9F0474FF0000A1D
:1003A00089460446C0F820A02046E1688847002816
:1003B00076D0252806D0D4E901219047206A401C38
:1003C0002062F1E7E168204600258847C4F81CA0B8
:1003D00006460027C4F818A02A2E09D0304602F09D
:1003E000EBFC38B304EB8708303EC8F8186019E01E
:1003F00059F8041B204604EB87029161E1688847A5
:10040000012F064618D1E069002820DA25F02005E2
:100410001DE0D8F8180000EB800006EB40003038F3
:10042000C8F818002046E1688847064602F0C4FC78
:100430000028EED1012F0AD02E2E08D12046E168E7
:1004400088477F1C0646022F45F02005C4DBA069C3
:10045000002803DA404245F00105A061E80701D019
:1004600025F01005B6B1A6F14100192802D82036B2
:1004700045F400654A463146204625604D46FFF763
:10048000BDFE58B1012806D0ED1D25F0070000F192
:10049000080989E704E005F1040985E730468AE7A1
:1004A000206ABDE8F08710B5431C02E010F8011B7C
:1004B00071B18107FAD14FF0013202C88C1A8C4316
:1004C00014EAC211F9D0C01A0A0603D0C01E10BD2A
:1004D000C01A10BD0A0401D0801E10BD0902FCD054
:1004E000401E10BD032A40F2308010F0030C00F0D3
:1004F000158011F8013BBCF1020F624498BF11F85E
:1005000001CB00F8013B38BF11F8013BA2F1040216
:1005100098BF00F801CB38BF00F8013B11F003038E
:1005200000F07B82083AC0F0088051F8043B083A9A
:1005300051F804CBA0E80810F5E7121D5CBF51F894
:10054000043B40F8043BAFF30080D20724BF11F80E
:10055000013B11F801CB48BF11F8012B24BF00F873
:10056000013B00F801CB48BF00F8012B70474FF06A
:10057000000200B5134694469646203922BFA0E8F3
:100580000C50A0E80C50B1F12001BFF4F7AF0907FF
:1005900028BFA0E80C5048BF0CC05DF804EB8900F0
:1005A00028BF40F8042B08BF704748BF20F8022B33
:1005B00011F0804F18BF00F8012B7047704770474B
:1005C00070472DE9FF4F0C461E464FF0FF378BB0AA
:1005D000D2E90001DDF860800A908A46C1F30A552D
:1005E00005B93D46002108464FF00000BAF1000F62
:1005F00000F4400005DA00EB80004FF4400101EA0E
:1006000050004FEA9059B9F1010F00DDB9460A9840
:1006100050EA4A000ED044F61050A5F2FF3545438B
:100620002F14B8F1000F1ED07542291E1EDDC9F12E
:1006300000021CE0B8F1010F4FF0000001D03021A2
:1006400003E0F24305E02154401CB042FBDB30469E
:100650000022002121540B99C1F80880C1E9002033
:100660000FB0BDE8F08FBD1B6D1CDEE74A4600DA17
:10067000694206A800F08EFA06AB93E8070003ABC8
:1006800083E8070050460A9901F0B6FF8DE807009D
:10069000A0F500501F3800900398002D0ADD42F2AB
:1006A0001F014A460844002303A90390684602F04C
:1006B0001FFA09E0A0F500504A461F38002303A99D
:1006C0000390684602F029FA8DE807000004000C48
:1006D00003D04FF0FF30410800E01046B8F1000FA2
:1006E00003D00022009215461EE0751E05D400F0CE
:1006F000CBF9303262556D1EF9D5B346012208435D
:1007000002D000227F1C04E02078302801D1002292
:100710007F1E002A099784D01DE0112D07DA00F012
:10072000B3F9303262556D1C50EA0102F5D108432D
:1007300002D00098C8B10EE00021681E05E0235CDD
:10074000625C63542254401E491C8142F7DBAB4675
:10075000A81B401E0990002004F80B000B98099A72
:10076000C0F80880C0E9002B7AE711264FF0000896
:1007700057E72DE9F04F88460446D21D22F00701C5
:1007800091B0D1E90001CDE90A0102F0FDFA02467B
:100790000B98C00F01D02D2007E02068810701D5FC
:1007A0002B2002E0202101EAC000032A099001D099
:1007B000072A05DB03464146204600F0ABF90BE172
:1007C0002078800601D5E06900E00620B8F1650FC9
:1007D000814606D0B8F1660F18D0B8F1670F70D116
:1007E00031E00020B9F1110F009001DB112301E08D
:1007F00009F101030AAA01A90CA8FFF7E2FEDDE94D
:100800000C70002609F10105834647E001204B46A4
:1008100000904FF000470AAA01A90CA8FFF7D1FEEB
:10082000DDE90DB00C995D46002610B909F1010013
:100830000D18B9EB050003D4C0F1FF3609F101052D
:10084000A5EB09002BE0B9F1010F01DA4FF0010926
:100850000020B9F1110F0090484601DD112300E09E
:1008600003460AAA01A90CA8FFF7ABFEDDE90C704C
:100870004D4600268346207800070AD4AB4500DAAF
:100880005D4601A8012D04DD411911F8011C302934
:1008900007D04F4502DA17F1040F04DA012082462F
:1008A0000FE06D1EEEE7002F02DCED1B3E4403E07F
:1008B000781CA84200DD7D1CB81B00F1010A4FF036
:1008C00000472078000703D4AA4501DB4FF0FF3A28
:1008D0000021B7F1004F0DF143088DF8431024D0EB
:1008E00002202B23002F01DA7F422D230A21021E32
:1008F000A0F1010000DC5FB197FBF1FC97FBF1F286
:1009000001FB1C7C17460CF1300C08F801CDEEE71A
:10091000A8F1010003702188090501D5452100E0F7
:100920006521A0F1010800F8011C09980FA9A1EBAD
:100930000807FF1D00B10120411901EBEA70A16910
:100940003844081A401EA0612078C00602D4204610
:10095000AFF30080099828B1D4E901219047206ABB
:10096000401C20622078C00622D52046AFF30080CC
:100970001EE0002E04DBB34502DD01A8805D00E02F
:100980003020D4E901219047206A401C2062761C67
:10099000AAF101005FEA000A0AD100F071F8C0680C
:1009A0000168405CD4E901219047206A401C206224
:1009B000281EA5F10105DCDC07E0D4E9012118F8C7
:1009C000010B9047206A401C2062381EA7F10107E6
:1009D000F3DC2046AFF30080032011B041E60000B5
:1009E00001694A1C02610878704700B58FB0CDE9F3
:1009F00001310021059105497944CDE903101146E3
:100A00006846FFF7C9FC0FB000BD0000E5FFFFFF1F
:100A10000A6802F8010B0A60704710B5203AC0F06E
:100A20000B80B1E81850A0E81850B1E81850A0E8C1
:100A30001850203ABFF4F5AF5FEA027C24BFB1E85A
:100A40001850A0E8185044BF18C918C0BDE810409D
:100A50005FEA827C24BF51F8043B40F8043B08BFA6
:100A60007047D20728BF31F8023B48BF11F8012B6D
:100A700028BF20F8023B48BF00F8012B7047000058
:100A8000004870473800002030B5B0F10A0271F11B
:100A900000034FEA900E4EEA817EB0EB0E0061EB50
:100AA00091014FEA101E4EEA017E10EB0E0041EB61
:100AB00011114FEA102E4EEA016E10EB0E0041EBC1
:100AC00011214FEA104E4EEA014E10EB0E0041EBA1
:100AD0001141401841F100014FEAD00040EA417055
:100AE0004FEAD1014FEA810444EA907410EB80058B
:100AF00044EB01046D1944EB0404521BA3414FF075
:100B0000000348BF0A3200D530BD401C41F100014E
:100B100030BD00002DE9F0411F4604460326016860
:100B2000072A01F4006004DB08B116A505E016A54C
:100B300003E008B115A500E015A521F01000206024
:100B4000A069C01EA0610FB1401EA0612046AFF396
:100B500000804FB1D4E9012138469047206A401CFB
:100B60002062C01C206206E0206AFAE7D4E9012175
:100B700015F8010B9047761EF8D22046AFF300809F
:100B8000BDE8F0814E414E006E616E00494E460058
:100B9000696E66002DE9F047814616468AB03548F1
:100BA00078440DC88DE80D0032487844801C03ACB1
:100BB0000DC884E80D0041F69B300844372190FBB6
:100BC000F1F290FBF1F5A5F1800501FB12041B3C4D
:100BD00002D56442012000E00020DFF898A08046A2
:100BE0000027FA44AAF1BE0A0EE0E0070AD0324616
:100BF000684607EB470101230AEB810101F08DFFF5
:100C00008DE8070064107F1C002CEED1194F7F4443
:100C1000AE3F19E0E80715D007EB04100DF1180AF4
:100C200090E80E008AE80E00C068F04201D19819E1
:100C300008903246012306A903A801F06EFF03AB1A
:100C400083E807006D10641C002DE3D14FF0010311
:100C500032466946B8F1000F03A802D001F048FF00
:100C600001E001F05AFFC9E90001C9F808200AB003
:100C7000BDE8F087D8230000004870471800002026
:100C80007546FFF7F9FFAE4605006946534620F06A
:100C90000700854618B020B5FFF7E0FABDE8204010
:100CA0004FF000064FF000074FF000084FF0000B28
:100CB000AC46ACE8C009ACE8C009ACE8C009ACE897
:100CC000C00921F007018D46704710B50446AFF307
:100CD00000802046BDE81040FFF7ACBA00000000DD
:100CE00030B44FF0013C50F8042B51F8043BCCFADF
:100CF00052F4D51A20D1FCB950F8042B51F8043B1A
:100D0000CCFA52F4D51A17D1B4B950F8042B51F8D3
:100D1000043BCCFA52F4D51A0ED16CB950F8042B1E
:100D200051F8043BCCFA52F4D51A05D1002CDAD094
:100D300030BC4FF00000704729BAB1FA81F111F0D0
:100D40001801D1F120008440F2D1CA40CB4012F00A
:100D5000FF0213F0FF0330BCD01A7047014918207E
:100D6000ABBEFEE72600020070470000FEE7000071
:100D70007047000072B600BFFEE70000B0B5044641
:100D800000F0ECF8054640F20C00C2F200000078DA
:100D9000611C18BF044400BF00F0E0F8401BA042F3
:100DA000FAD3B0BD2DE9F04F83B000F13E4202F11D
:100DB000FF724FEAB22241F600470192C4F20207E5
:100DC00008224FF0010E00254FF0000A4FF00008F6
:100DD000B84208BF072200920AE000BF08F10108EC
:100DE0000AF1040AB8F1100F05F1020500F0A48021
:100DF0000C680EFA08FB14EA0B09EFD04C6804F0FB
:100E0000030CACF1010EBEF1010F11D8032287686B
:100E100002FA05F6CA68B743AA403A4382604268BC
:100E2000C4F3001722EA0B0207FA08F73A434260BC
:100E3000BCF1030F1CD0C26803238E6803FA05F7C8
:100E4000BA4306FA05F73A43BCF1020FC2600FD16C
:100E50006FF0030202EA580202440AF01C060F2354
:100E6000176A03FA06F40B69A743B3403B431362C6
:100E7000026803234F68AB409A4307F00303AB407B
:100E80001A4317F4403F4FF0010E0260A6D0002233
:100E900043F644030292C4F202031A6843F6004484
:100EA00042F480421A601A68C4F2010402F48042DB
:100EB0000292029A28F003024FF6084B2244CFF622
:100EC000FF7B52F80B300AF00C070F26BE4023EAD6
:100ED000060C019B009E072B38BF1E4606FA07F73B
:100EE00047EA0C0342F80B30A2684B6842EA090754
:100EF00043F60C4CDE0258BF22EA0907A760C4F291
:100F0000010CDCF800209E0242EA090758BF22EAE1
:100F10000907CCF8007062689E0342EA090758BFCF
:100F200022EA090767602268DB0342EA090358BF27
:100F300022EA0903236051E703B0BDE8F08F000007
:100F4000426902EA0103914341EA0341816170472A
:100F5000002A08BF090481617047000040F2341084
:100F6000C2F200000068704740F20C0040F23411F9
:100F7000C2F20000C2F2000100780A681044086062
:100F80007047000080B543F60040C4F202000168DB
:100F900041F400710160016841F480610160016801
:100FA00041F480710160032000F05CF80F2000F034
:100FB00005F800F02BF8002080BD0000B0B540F22D
:100FC0000C02C2F2000240F200011278C2F20001EB
:100FD0004FF47A730968B3FBF2F20446B1FBF2F105
:100FE000084600F04BFD0F2C4FF001050CD858B906
:100FF0004FF0FF3021460022002500F023F840F298
:101000001000C2F2000004602846B0BD82B000208B
:1010100043F640010190C4F202014A6842F4804262
:101020004A604A6802F480420192019A009008687E
:1010300040F080500860086800F0805000900098F0
:1010400002B0704770B514460D46064601F016FA18
:101050002946224600F0F0FF0146304601F016FA1C
:1010600070BD000080B501F023FA80BD2DE9F0418C
:10107000002800F08B8043F60808C4F202080446FA
:10108000D8F8F8030D4600F00700884207D288F828
:10109000F853D8F8F80300F00700A84276D120688A
:1010A000810717D5410705D5D8F8001041F4E05164
:1010B000C8F80010010705D5D8F8001041F46041C8
:1010C000C8F80010D8F80010A26821F0F001114310
:1010D000C8F80010C0073FD1D8F8F80300F00700A7
:1010E000A84207D988F8F853D8F8F80300F00700A9
:1010F000A8424BD12068410707D5D8F80010E26814
:1011000021F4E0511143C8F80010000708D5D8F8C1
:101110000000216920F4604040EAC100C8F80000E6
:1011200000F07EF8D8F8001042F69472C1F3031173
:10113000C0F60002515C40F2000220FA01F140F2D8
:101140001000C2F200000068C2F200021160FFF756
:1011500035FF0020BDE8F0816068811E022907D2BA
:1011600058F8081C89015CBF0120BDE8F08110E03F
:10117000012807D158F8081C89035CBF0120BDE88D
:10118000F08106E058F8081C890702D40120BDE868
:10119000F081D8F8001021F003010843C8F80000DE
:1011A000FFF7DCFE064641F2883700BFD8F80000A2
:1011B000616800F00C00B0EB810F8DD0FFF7CEFE20
:1011C000801BB842F2D90320BDE8F08140F2000054
:1011D000C2F200000068704780B5FFF7F7FF43F6E2
:1011E0000801C4F20201096842F6A472C1F3822127
:1011F000C0F60002515CC84080BD000080B5FFF71A
:10120000E5FF43F60801C4F20201096842F6A47240
:10121000C1F34231C0F60002515CC84080BD0000FD
:1012200010B543F60404C4F20204606800F00C0038
:1012300008280AD0042819BF42F20040C0F2F40086
:1012400047F64000C0F27D1010BD20682168236879
:10125000490247F64001C0F27D1100F03F02C3F39E
:1012600088105CBF42F20041C0F2F401A1FB000112
:101270000023FFF705F821680222C1F3014102EBC8
:101280004101B0FBF1F010BD2DE9F04182B0002822
:1012900000F0A2800446007843F60006C007C4F2BE
:1012A000020643D0B06800F00C00042805D1306875
:1012B00080033BD56068C8BB8EE0B06800F00C00CE
:1012C000082802D170684002F1D46568B5F5A02FF6
:1012D0000AD0B5F5803F0BD0306820F48030306004
:1012E000306820F4802006E0306840F480203060D0
:1012F000306840F480303060FFF730FE002D054646
:1013000011D000BF3068800310D4FFF727FE401BC8
:101310006428F7D922E100BFFFF720FE401B6428B4
:101320004FF0030055D830688003F5D4207880074B
:101330001AD5B06810F00C0F09D0B06800F00C009E
:10134000082840F08A807068400200F1868030688A
:10135000800702D5E06801283ED13068216920F07D
:10136000F80040EAC10030602078000738D42078C7
:1013700040074CD4A5695DB3B06800F00C000828A4
:1013800040F09E80012D27D07068E16900F4800252
:101390008A4221D1216A00F03F028A421CD147F6DD
:1013A000C071626A0140B1EB821F15D1A26A0023AD
:1013B000CFF6FF7303EBC23200F440316FF30F023C
:1013C000914209D1E16A00F07060B0EB016F03D186
:1013D000002002B0BDE8F081012002B0BDE8F0813C
:1013E0006069002840F20000C4F2472057D0012174
:1013F000C0F8801EFFF7B2FD054600BF706F800782
:10140000B5D4FFF7ABFD401B0228F7D9A6E0306C3E
:1014100010F080580AD100200190306C40F08050CC
:101420003064306C00F080500190019847F2000762
:10143000C4F200073868C00524D4386840F48070CE
:101440003860FFF78BFD05463868C0051AD4FFF7F2
:1014500085FD401B0228F7D980E0E068002851D0C4
:101460000020C4F2472001210160FFF777FD054607
:10147000306880073FF571AFFFF770FD401B022811
:10148000F6D96BE0A568052D50D0012D52D0306FF4
:1014900020F001003067306F20F004004DE00021A3
:1014A000C0F8801EFFF75AFD054600BF706F800729
:1014B0007FF55DAFFFF752FD401B0228F6D94DE0E6
:1014C0000027C4F2472700203866FFF747FD022DAA
:1014D00005460BD13068800158D5FFF73FFD401B12
:1014E00002284FF00300F5D973E700BF3068800190
:1014F0007FF56EAFFFF732FD401B02284FF003006F
:10150000F4D966E70020C4F2472000210160FFF70C
:1015100025FD0546306880077FF526AFFFF71EFDE5
:10152000401B02284FF00300F4D952E7306F40F01F
:1015300004003067306F40F001003067FFF70EFDA8
:10154000002D054641F2883714D000BF306F800768
:1015500013D4FFF703FD401BB842F7D9032002B0B4
:10156000BDE8F081FFF7FAFC401BB8424FF00300E2
:101570003FF62FAF306F8007F4D4B8F1000F7FF43F
:10158000F9AE306C20F080503064F3E604F11C05B5
:101590002FCD08430021CFF6FF7140EA821001EB06
:1015A000C3316FF30F0140EA05600843706001200A
:1015B0003866FFF7D3FC0446306880013FF508AF7A
:1015C000FFF7CCFC001B02284FF00300F4D900E722
:1015D00070B538B10446406A30B10020206104F192
:1015E000140007E0012070BD6068B0F5827F03D071
:1015F00004F11C00002101600026A66294F851004D
:1016000020B9204684F8506000F03CF8022084F8AD
:10161000510094E80F0001F48271056802F404425D
:1016200025F040050560114403F40062236911446C
:1016300003F002026369114403F00102A369E56942
:10164000114403F40072114405F03802256A114474
:1016500005F08002A56A114305F4005211430160B0
:10166000626A042101EA134102F010021144416050
:10167000C16921F40061C1610120666584F85100EF
:10168000304670BD80B586B043F200010068C4F2F8
:101690000101002288420592CDE9032202920192C3
:1016A00001D006B080BD43F630000092C4F20200C3
:1016B000436943F480534361436903F480530093C7
:1016C000009B0092036843F001030360006800F090
:1016D000010000900098E02001900220CDE9020274
:1016E000032004900520059001F5504001A9FFF763
:1016F00059FB06B080BD00002DE9F04182B01D46C7
:1017000016460F460446FFF729FC94F851100129AC
:101710000DD18046002F4FF0010018BF002E02D1DE
:1017200002B0BDE8F08194F85000012803D10220F6
:1017300002B0BDE8F081012084F85000032084F855
:101740005100002060652763A686E686A063A08717
:10175000E087A168C4E91000B1F5004F08D1206806
:10176000016821F040010160016841F4804101609D
:1017700020680168490603D4016841F04001016016
:101780006168731EE268B1FA81F1B3FA83F3490923
:101790005B09B2F5006F41EA030124D139B1216B35
:1017A0000988C160B81C2063E08E0138E086E08EB5
:1017B000002846D06E1C09E0216B31F8022BC26074
:1017C0002163E08E0138E086E08ED0B32068816826
:1017D0008907F1D4FFF7C2FB002EF5D0A0EB08007B
:1017E000A842F1D323E039B139780173206B01307D
:1017F0002063E08E0138E086E08E10B36E1C0AE0B4
:10180000216B09780173206B01302063E08E013871
:10181000E086E08EA8B1206881688907F0D4FFF7E0
:101820009DFB002EF5D0A0EB0800A842F1D30120CB
:1018300084F85100002084F85000032002B0BDE875
:10184000F08120462946424600F00EFC00281CBFCD
:1018500020206065A06838B9002001902068C16828
:101860000191806801900198012084F851000020C6
:1018700084F85000606D002818BF012002B0BDE858
:10188000F08100002DE9F04381B01E4615460F4659
:101890000446FFF763FB94F851108146012909D0F3
:1018A0006068B0F5827F14D104294FF0020007D19F
:1018B000A16829B9002F4FF0010018BF002D02D1F7
:1018C00001B0BDE8F083002EFAD094F85000012852
:1018D00003D1022001B0BDE8F083012084F850005C
:1018E00094F85100002104281CBF052084F8510001
:1018F0006165A563E687A6872763E6862068A686D6
:10190000216461640168490603D4016841F0400123
:1019100001606168731EE268B1FA81F1B3FA83F382
:10192000DDF8208049095B09B2F5006F41EA030147
:1019300039D139B1216B0988C160B81C2063E08EB0
:101940000138E086012608F1010500BFE08E10B9DC
:10195000E08F00286CD02068816889070CD5E18E63
:10196000012E09D141B1216B002631F8022BC26052
:101970002163E18E0139E1868168C9070AD0E18FD0
:1019800041B1C068A16B012621F8020BA163E08F71
:101990000138E087FFF7E2FA002DD7D0A0EB09006D
:1019A0004045D3D33AE039B139780173206B013027
:1019B0002063E08E0138E086012608F1010500BFB2
:1019C000E08E08B9E08F98B32068816889070DD54B
:1019D000E18E012E0AD149B1216B002609780173ED
:1019E000206B01302063E08E0138E086206881683A
:1019F000C9070BD0E18F49B1C068A16B01260870FF
:101A0000A06B0130A063E08F0138E087FFF7A6FAF2
:101A1000002DD5D0A0EB09004045D1D3012084F89A
:101A20005100002084F85000032001B0BDE8F0838D
:101A3000204641464A4600F017FB40B12020606531
:101A4000002084F85000012001B0BDE8F083A068B8
:101A500038B9002000902068C1680091806800902B
:101A60000098012084F85100002084F85000606D37
:101A7000002818BF012001B0BDE8F08380B500F058
:101A8000ABFB80BD002804BF0120704710B50446A1
:101A900090F8410028B9002084F84000204600F06A
:101AA00021F8242084F841002068C16821F4005105
:101AB000C160204600F02EFC2068016921F49041AD
:101AC0000161416921F02A014161C16841F400517D
:101AD000C16000202021606484F8411084F8421025
:101AE000606310BD80B586B041F200010068C4F2A9
:101AF0000101002288420592CDE90322029201925F
:101B000001D006B080BD43F630000092C4F202005E
:101B1000436943F010034361436903F010030093EA
:101B2000009B0092036843F001030360006800F02B
:101B30000100009000984FF4C06001900220CDE9B0
:101B40000202032004900720059001F5704001A9CE
:101B5000FFF728F906B080BD2DE9F041044690F862
:101B6000410020281CBF0220BDE8F0810E4600295C
:101B70004FF0010042D01746002A08BFBDE8F081AF
:101B80004FF0000821201D46C4F8448084F841002D
:101B9000FFF7E4F9A784E784A1680746B1F5805F01
:101BA0000DD12069002814BF3046B046064606E035
:101BB00016F8010B21684860E08C0138E084E08C65
:101BC00080B1204680213A462B4600F011FCB8B97E
:101BD000002EEDD138F8020B21686FF35F204860CA
:101BE0000026E9E7204640213A462B4600F000FC5B
:101BF000202184F84110002818BF0320BDE8F0819F
:101C0000202084F841000320BDE8F081FEE70000B9
:101C1000B0B582B0002031250DF107048DF8070022
:101C200075202146012200F09DF89DF80700472805
:101C300006D00A20FFF7A2F82806A5F10105EFD18A
:101C40009DF80700472816D14E20002100F030F9FA
:101C50000A20FFF793F8002005210022052300F059
:101C6000DBF84E200F2100F023F90A20FFF786F859
:101C7000012002B0B0BD002002B0B0BD80B582B07E
:101C80000DF102011F20062200F06CF840F2040062
:101C9000BDF80210C2F2000090ED000AC8BA01EED1
:101CA000100ABDF80400B8EEC11AC0BA02EE100A5C
:101CB000BDF8060040F21811C0BA03EE100AB8EEE3
:101CC000C22AB8EEC33A20EE011AC2F2000120EE99
:101CD000022A20EE030A81ED001A81ED012A81ED2E
:101CE000020A02B080BD000080B5FFF7C7FF00F018
:101CF00003F800F06FF880BD80B582B00DF10201ED
:101D00002520062200F02EF840F20800BDF802104F
:101D1000C2F2000090ED000AC8BA01EE100ABDF848
:101D20000400B8EEC11AC0BA02EE100ABDF80600EF
:101D300040F21811C0BA03EE100AB8EEC22AB8EE8B
:101D4000C33A20EE011AC2F2000120EE022A20EE70
:101D5000030A81ED031A81ED042A81ED050A02B020
:101D600080BD00002DE9F0418AB01446884640F05D
:101D700080008DF818004AB1012006A9FF2200BF9B
:101D8000C3B20130C7B2A742CA54F9D940F20047E2
:101D9000C4F20207384602210022FFF7D9F840F2C8
:101DA000780002AE631C4FF0FF35C2F2000006A9B6
:101DB00032460095FFF766FD384602210122FFF703
:101DC000C7F824B1711C40462246FEF78BFB0AB0CF
:101DD000BDE8F08180B582B00DF106011D20022220
:101DE000FFF7C0FFBDF806009FED0A1AC0BA00EE6B
:101DF000100AB8EEC00A80EE010AB3EE091A40F2EA
:101E00001810C2F2000030EE010A80ED060A02B09E
:101E100080BD00BFE17A044370B50546481C40EA26
:101E20004510C1B250201E46144600F041F8701C07
:101E300040EA4410C1B24F2000F03AF8B7EE000A71
:101E4000032DB0EE401A05D868B20DA101EB800059
:101E500090ED001A40F20400C2F20000072C80ED61
:101E6000001A05D860B20AA101EB800090ED000ACB
:101E700040F20800C2F2000080ED000A70BD00BF11
:101E80000000003A0000803900000039000080386E
:101E900000007A3D0000FA3C00007A3C0000FA3B6A
:101EA00000007A3B0000FA3A00007A3A0000FA3962
:101EB00010B582B040F2004400F07F00C4F202048A
:101EC0008DF806008DF80710204602210022FFF74A
:101ED0003FF840F27800C2F200000DF10601022244
:101EE0004FF0FF33FFF708FC204602210122FFF7E5
:101EF0002FF802B010BD00002DE9F04387B0002795
:101F000043F630000697CDE90477CDE902770197D3
:101F1000C4F20200016840F2004841F0040101608F
:101F20000168C4F2020801F00401019101990197CE
:101F3000016808F5806541F08001016001680122B7
:101F400001F080010191019901970168012441F09C
:101F500001010160016801F00101019101990197FE
:101F6000016841F0020101600068012100F00200F7
:101F7000019001982846FEF7EBFF4046032101221D
:101F80004FF00309FEF7E4FF02AE28463146CDE9E3
:101F90000244CDE90477FEF705FF40463146CDE91E
:101FA0000294CDE90477FEF7FDFE07B0BDE8F083AB
:101FB00080B540F2780043F20001C2F20000C4F2A2
:101FC00001014FF48272002380E80E0000F1140139
:101FD0004FF4007C4FF0080E81E808500A21C0E958
:101FE0000333C0E90833C0E90A31FFF7F1FA0028EA
:101FF00018BFFEF7BFFE80BD80B540F2D00041F2B1
:102000000001C2F20000C4F2010100234FF00C0CE9
:102010004FF4E13280E80E00C0E90333C0E905C3A4
:10202000C361FFF72FFD002818BFFEF7A3FE80BD98
:10203000FEE70000FEE7000000F0070080F0070365
:10204000042B28BF04234FF0FF3C03380CFA03F3A2
:1020500038BF0020994381400CFA00F022EA0000CA
:10206000084370477047000070B582B00D461646B1
:10207000022101222B460446009600F03BF838B1BD
:10208000606D032540F020006065284602B070BDF9
:1020900040F20000C2F20000006849F68171C1F20E
:1020A0005E61A0FB0101480D4FF47A714843019035
:1020B0006068B0F5827F0FD12046802100222B4638
:1020C0000096002500F016F80028DED0606D03258C
:1020D00040F020006065D8E7019840B101980138D0
:1020E0000190206880680006F6D40025CDE7002521
:1020F000CBE700002DE9F04782B00A9C98461546D0
:102100000E468146FEF72AFF201A00EB0804FEF770
:1021100025FF40F20001C2F200010968C1F3CB3192
:1021200061430191D9F8001089683140891BB1FAE7
:1021300081F14909A94203D1002002B0BDE8F0872E
:10214000824608F101070CE0019801380190D9F8A6
:10215000000080683040801BB0FA80F04009A8423F
:10216000EAD0002FF3D0FEF7F9FEA0EB0A00A04260
:1021700004D201980028E7D10024E8E7D9E900015A
:102180004268B1F5827F22F0E00242600BD1D9F8BB
:102190000810B1F5004F02D0B1F5806F03D101688E
:1021A00021F040010160D9F82810B1F5005F07D196
:1021B000016821F400510160016841F4005101609F
:1021C000012089F85100002089F85000032002B056
:1021D000BDE8F08770470000B0B501380024B4EBCB
:1021E000106F1CBF0120B0BD4EF21005CEF20005ED
:1021F00068604FF0FF300F2100F048F90720AC6015
:1022000028602046B0BD000080B5FEF7ADFE80BD61
:1022100070B592B006AC20463021FEF7A8F9002533
:1022200043F640000595CDE90355CDE901550095EC
:10223000C4F202000168022641F08051016000688A
:1022400000F080500090009847F200000095C4F222
:102250000000016841F480410160006800F48040A2
:10226000009000980120099010200A9008200E90FC
:10227000A820CDE90F060420119020460696CDE94E
:102280000C65FFF701F888B90F20CDE901064FF47E
:10229000A05004904FF48050059001A805210395AB
:1022A000FEF7E4FE002804BF12B070BDFEF762FD29
:1022B0004EF68850CEF20000016841F470010160D2
:1022C00070470000016851E8031F026821F4907113
:1022D00042E80313002BF5D1016851E8051F02689D
:1022E00021F0010142E80513002BF5D1016B012912
:1022F0000AD100BF016851E8031F026821F01001F4
:1023000042E80313002BF5D1202180F84210002170
:102310000163704710B504460068D4E902C223691E
:10232000016921F4405111430161626943EA0C01E2
:10233000E3691143C268194349F20C639A4311439C
:10234000C1604169A26921F4407141F20043114327
:1023500040F48062C4F201039A42416102D1FEF767
:102360004DFF01E0FEF738FFE16963681922B1F51E
:10237000004FA0FB02011CD15A00DB0FFDF780FFCC
:1023800048F21F51C5F2EB11A0FB01235A096FF06F
:10239000630302FB0300322303EBC000A0FB010137
:1023A0004FF4F87000EA111000EB0210C1F3421173
:1023B0001AE09A009B0FFDF763FF48F21F51C5F228
:1023C000EB11A0FB01235A096FF0630302FB03002A
:1023D000322303EB0010A0FB0101F02000EA5110B2
:1023E00000EB0210C1F3431122680843906010BD56
:1023F0002DE9F04182B00446006800680840884238
:1024000003D1002002B0BDE8F0811D460E46904683
:102410005F1C04E0206800683040B04228D0002FE4
:10242000F8D0FEF79BFD01464FF003000DB3A1EB82
:102430000801A9421DD82068C1684907EAD5402E85
:10244000E8D0802EE6D001680907E3D50025019584
:10245000016801914068019001982046FFF732FF22
:102460000820606484F84050012002B0BDE8F0818B
:10247000002002B0BDE8F081FEE700004EF60C50EF
:10248000CEF200000068C0F3022070474EF61453ED
:1024900000F00F02CEF2000309011A4400F160437C
:1024A000B0F1FF3FC8BF03F56442117070470000F0
:1024B0004EF60C51CEF200010A684FF6FF031A40A7
:1024C00060F30A2242F0806040F0FD7008607047BF
:1024D000BEB040F2004AC4F2020AFEF753FDFFF715
:1024E00097FEFFF709FDFFF763FDFFF785FDFFF797
:1024F0008FFB00285BD040F2D000C2F2000035A173
:102500000E224FF0FF33FFF727FB40F21819C2F2FB
:1025100000090DF1300B00BFFFF7E6FB99E89101D0
:1025200000F06EFC054620460E4600F069FC41ECCA
:10253000180B384600F064FC41EC190B404600F0E3
:102540005FFC41EC1A0BD9F8100000F059FC41EC8B
:102550001B0BD9F8140000F053FC41EC1C0BD9F80C
:10256000180000F04DFC41EC100B42F6AC715846DF
:10257000C0F600012A4633468DEC0A8B8DED0A0B1E
:10258000FDF7F6FE5846FDF78EFF82B240F2D0000E
:10259000C2F2000059464FF0FF33FFF7DDFA504614
:1025A0000121FEF7CDFC3220FEF7E8FBB4E740F254
:1025B000D000C2F200000BA110224FF0FF33FFF752
:1025C000CBFA00BF50460121FEF7BAFC6420FEF7AB
:1025D000D5FBF7E749434D3432363838204F4B218D
:1025E0000D0A000049434D343236383820464149FF
:1025F0004C210D0A000000005FEA400C08BF91F07A
:10260000000F4FEA8C234FEAC12243EA51514FEAAF
:102610001C5018BF00F5F0404FEA300018BF41F0E1
:1026200000415FEA6C5C00F02980BCF1FF3F08BF0D
:1026300040F080407047130C06BF12044FF0100C9E
:102640004FF0000C130E04BF12020CF1080C130F14
:1026500004BF12010CF1040C930F04BF92000CF1A3
:10266000020CD30F04BF52000CF1010C11464FF0C5
:102670000002A0F11F00A0EB0C00704711F0004F0A
:1026800008BF704731F000413FF4D5AF0B0C06BFD7
:1026900009044FF0100C4FF0000C0B0E04BF0902A0
:1026A0000CF1080C0B0F04BF09010CF1040C8B0F8B
:1026B00004BF89000CF1020CCB0F04BF49000CF1E0
:1026C000010CCCF1200322FA03F341EA030102FAE0
:1026D0000CF2A0EB0C0000F10100704723F07F47E3
:1026E00020F07F4C80EA030000F00040ACEB0703D1
:1026F00003F57C5303F1FF032DE9804909B44FEA48
:10270000144324EA03484FEA154B25EA0B4E0FF217
:10271000042606EB13273E7803FB0667C7F5000780
:1027200007FB06F64FEAD64606F102064FEA543793
:1027300007FB066CCCF1005C4FEA1C472CEA074C07
:102740000CFB06F507FB06F404EB15464FEA96165C
:1027500049085FEA320234BF00204FF000404FEAE0
:10276000D13706FB07FC4FEA1C4C0CFB0BF7D21BC6
:1027700003FB0CF761EB07010CFB0EF7B0EB074016
:1027800072EB17420CFB08F734BFA2EB0742B2EB27
:10279000074261EB17414FEA0C444FEA910706FBF1
:1027A00007FC4FEA1C4C0CFB0BF7B0EBC74072EB7D
:1027B000573203FB0CF734BFA2EBC742B2EBC74260
:1027C00061EB57310CFB0EF7B0EBC70072EB5772A1
:1027D0000CFB08F734BFA2EBC702B2EBC70261EBF8
:1027E00057714FEA816141EA92114FEA826242EAEF
:1027F00090124FEA806004EBCC04039F4FEAD1377C
:1028000006FB07FC4FEA1C4C0CFB0BF7D21B03FB2F
:102810000CF761EB07010CFB0EF7B0EB074072EB16
:1028200017420CFB08F734BFA2EB0742B2EB07429A
:1028300061EB17414FEA8C5504EB9C244FEA91075A
:1028400006FB07FC4FEA1C4C0CFB0BF7B0EBC74038
:1028500072EB573203FB0CF734BFA2EBC742B2EB6B
:10286000C74261EB57310CFB0EF7B0EBC70072EBC0
:1028700057720CFB08F734BFA2EBC702B2EBC702DA
:1028800061EB57714FEA816141EA92114FEA82622E
:1028900042EA90124FEA806015EB4C2544F10004A7
:1028A0004FEAD13706FB07FC4FEA1C4C0CFB0BF739
:1028B000D21B03FB0CF761EB07010CFB0EF7B0EB2F
:1028C000074072EB17420CFB08F734BFA2EB07423C
:1028D000B2EB074261EB17414FEA813141EA924185
:1028E0004FEA823242EA90424FEA80304FEA0C7659
:1028F00015EB1C1544F1000448EA03434EEA0B486B
:102900004FF0000EB2EB080C71EB030724BF6246D8
:1029100039464EEB0E0E4FF0000B00185241494164
:102920004BEB0B0BB2EB080C71EB03077BF1000BCD
:1029300024BF624639464EEB0E0E4FF0000B0018D6
:10294000524149414BEB0B0BB2EB080C71EB030707
:102950007BF1000B24BF624639464EEB0E0E51EA66
:10296000020718BF46F0010616EB0E7655F100027D
:1029700054F1000103D5BDE88901BDE80088BDE838
:102980008901BDE80048B619524141EB0101A3F1AC
:102990000103704780807F7E7D7C7B7A79787776B3
:1029A00076757473727171706F6E6E6D6C6C6B6A2C
:1029B0006A696868676666656464636362616160CA
:1029C000605F5F5E5E5D5D5C5C5B5B5A5A59595847
:1029D00058575756565555555454535352525251B1
:1029E000515050504F4F4F4E4E4D4D4D4C4C4C4B07
:1029F0004B4B4A4A4A49494948484847474747464E
:102A00004646454545444444444343434342424289
:102A1000424141419C46002B30D477002BD04FEAF5
:102A200037071CB503B44FF010004FF01001BAF196
:102A3000000F06D0BCF1000FDCBF40F0080040F0F2
:102A400008014FF000000FBCBDE810400BF1010B76
:102A5000BBF1010F08BF5FEA170722BF12F10102A5
:102A600011F101014FF0004143F1000300F000407B
:102A700043EA00007047F9D35708D0E746EA064614
:102A80004FEA164613F1400F1FDD13F1200FDFBF91
:102A900016430A46002120335B42BED0C3F1200713
:102AA00046EA06464FEA164602FA07F746EA0706DE
:102AB00022FA03F2C3F1200701FA07F742EA0702FC
:102AC00021FA03F14FF00003A7E746EA020646EABF
:102AD00006464FEA164646EA0106BCBF46EA0646E7
:102AE000360C4FF000034FF000024FF0000194E766
:102AF0002DE9804C70B49A46934691E8380007C897
:102B000031EA400C48BF34EA430C03D5FFF7E6FD39
:102B1000FFF780FFF0BCBDE8008C2DE9804C70B45D
:102B20009A46934691E8380007C810F0804F08BFD6
:102B300013F0804F03D100F005F8FFF76BFFF0BCF6
:102B4000BDE8008C20F07F4723F07F4C80EA030033
:102B500000F0004007EB0C03A3F57C53A3F1FE0348
:102B600092F0000F00F0B38095F0000F00F0778036
:102B70002DE901494FEA114021EA00484FEA144685
:102B800024EA064700FB06FC08FB06F607FB08F8EC
:102B900018EB06484CEB164C00FB07F718EB074800
:102BA0004CEB17404FEA124B22EA0B4E4FEA154608
:102BB00025EA06470BFB06FC0EFB06F607FB0EFE9E
:102BC0001EEB064E4CEB164C0BFB07F71EEB074EAD
:102BD0004CEB174B18EB0B0840F1000018EB0E0BF9
:102BE00058EB000840F100008F1A4FF000014FF041
:102BF00000063CBFC943661B14BFB5EB040C0021A3
:102C00003CBFC943F61B4FEA174427EA04454FEA85
:102C10001C472CEA074C04FB076205FB07F70CFB7B
:102C200005F616EB074642EB174204FB0CFC16EBCD
:102C30000C4642EB1C421BEB060658EB02024141DC
:102C40004EEA8E0E46EA9E0601D5BDE80189B61908
:102C5000524141EB0101A3F10103BDE801894FEAB3
:102C6000144524EA05464FEA114721EA074C05FBC3
:102C700007F406FB07F70CFB06F111EB074144EBE9
:102C8000174405FB0CFC11EB0C4144EB1C444FEAD0
:102C9000124722EA074C05FB07F206FB07F70CFB7D
:102CA00006F616EB074642EB174205FB0CFC16EB4B
:102CB0000C4642EB1C456A1854F1000148BF7047AE
:102CC000B619524141EB0101A3F10103704795F0A0
:102CD000000F37D04FEA114221EA02464FEA14476B
:102CE00024EA074C02FB07F106FB07F70CFB06F48E
:102CF00014EB074441EB174102FB0CFC14EB0C44B2
:102D000041EB1C414FEA154725EA074C02FB07F54A
:102D100006FB07F70CFB06F616EB074645EB1745D7
:102D200002FB0CFC16EB0C4645EB1C42121951F150
:102D3000000148BF7047B619524141EB0101A3F1B0
:102D4000010370474FEA144524EA05464FEA11474C
:102D500021EA074C05FB07F106FB07F70CFB06F21F
:102D600012EB074241EB174105FB0CFC12EB0C4246
:102D700051EB1C414FF0000648BF7047921841EBE1
:102D80000101A3F10103704703B4019841000098C9
:102D900050EAC12018BF04204A0D18BF40F00100BE
:102DA00040F2FF72B2EB515F08BF40F00200012811
:102DB00008BF052002B0704730380A2801D2012030
:102DC000704700207047000010B500290AD008782D
:102DD000002807D005487844FDF782FF002801D07D
:102DE000002010BD0248784410BD00003E020000E3
:102DF000360200000808A0F500114FEA31017047C3
:102E000043004FEAD30C4FEA3C0C43401FBF40073E
:102E10000CF1605113F0FE4F70471CF0006F03D1AE
:102E20000CF00041002070470CF0004343EA507062
:102E300040EACC0010B500F00EF800BF0000009290
:102E40004FEA0001FFF7D6BF4FF00041A1F5002186
:102E50004FF0000070470EF1020E2EF0030E5EF8E8
:102E6000044B244204D44FEA4102B2F17F4F11D8FF
:102E70004FEA4003B3F17F4F0CD80ED14FEAD07C1C
:102E80000CEB4C0C0CF1020CB2F17F4F08BF4CEB79
:102E9000D17C04E04FF0080C01E04FEAD17C0CEB50
:102EA0004C0324FA03F404F00704B4F1040C06D232
:102EB0000EEB840CBDE810404CF0010C6047DFE8DD
:102EC0000CF0070802024FF00040A0F5800010BD92
:102ED0000846420018BFD2F1807288BF00F000405F
:102EE00010BDF1EE100A4FF6FF71C0F2C03120EABA
:102EF000010040F04070E1EE100A7047FDF739BC68
:102F000002400000000000A000000000054000009A
:102F1000000000C8000000000C4000000000409CC1
:102F200000000000194000000020BCBE00000000AE
:102F300034400000BFC91B8E00000004B5400000F3
:102F4000504BCFD06607E2CF010000006C4100007B
:102F50003E8251AADFEEA73401000000D9420000F2
:102F6000DCB5A0E23A301F97FFFFFFFFB445000039
:102F7000FD25A0C8E9A3C14FFFFFFFFFFF3F0000F1
:102F80000000008000000000FF3F00000000008003
:102F90000000000000000000000000000102030427
:102FA0000607080900000000010203044163633AB8
:102FB00020583D252E336620593D252E3366205A54
:102FC0003D252E3366207C204779726F3A20583D8C
:102FD000252E326620593D252E3266205A3D252E5B
:102FE0003266207C2054656D703D252E31660D0AB9
:102FF0000000000030300008000000201800000031
:10300000C401000848300008180000202007000014
:10301000E00100081C00000043000000F8FFFFFF73
:103020000C0000000E0000000F0000002E00000049
:103030000024F4000000003A00007A3D0100000086
:08304000100000000000000078
:040000050800018965
:00000001FF
